{
  "contractName": "LiquidStaking",
  "abi": [
    {
      "inputs": [
        {
          "internalType": "address",
          "name": "_reToken",
          "type": "address"
        },
        {
          "internalType": "address",
          "name": "_validatorOwner",
          "type": "address"
        },
        {
          "internalType": "uint256",
          "name": "_unbondingTime",
          "type": "uint256"
        }
      ],
      "stateMutability": "nonpayable",
      "type": "constructor"
    },
    {
      "anonymous": false,
      "inputs": [
        {
          "indexed": false,
          "internalType": "address",
          "name": "sender",
          "type": "address"
        }
      ],
      "name": "Received",
      "type": "event"
    },
    {
      "stateMutability": "payable",
      "type": "fallback"
    },
    {
      "inputs": [
        {
          "internalType": "address",
          "name": "",
          "type": "address"
        }
      ],
      "name": "balanceOf",
      "outputs": [
        {
          "internalType": "uint256",
          "name": "",
          "type": "uint256"
        }
      ],
      "stateMutability": "view",
      "type": "function"
    },
    {
      "inputs": [],
      "name": "owner",
      "outputs": [
        {
          "internalType": "address",
          "name": "",
          "type": "address"
        }
      ],
      "stateMutability": "view",
      "type": "function"
    },
    {
      "inputs": [],
      "name": "reToken",
      "outputs": [
        {
          "internalType": "contract IERC20",
          "name": "",
          "type": "address"
        }
      ],
      "stateMutability": "view",
      "type": "function"
    },
    {
      "inputs": [
        {
          "internalType": "address",
          "name": "",
          "type": "address"
        }
      ],
      "name": "rewards",
      "outputs": [
        {
          "internalType": "uint256",
          "name": "",
          "type": "uint256"
        }
      ],
      "stateMutability": "view",
      "type": "function"
    },
    {
      "inputs": [],
      "name": "rewardsTokenAmount",
      "outputs": [
        {
          "internalType": "uint256",
          "name": "",
          "type": "uint256"
        }
      ],
      "stateMutability": "view",
      "type": "function"
    },
    {
      "inputs": [],
      "name": "totalAddressNumber",
      "outputs": [
        {
          "internalType": "uint256",
          "name": "",
          "type": "uint256"
        }
      ],
      "stateMutability": "view",
      "type": "function"
    },
    {
      "inputs": [],
      "name": "totalSupply",
      "outputs": [
        {
          "internalType": "uint256",
          "name": "",
          "type": "uint256"
        }
      ],
      "stateMutability": "view",
      "type": "function"
    },
    {
      "inputs": [],
      "name": "unbondingTime",
      "outputs": [
        {
          "internalType": "uint256",
          "name": "",
          "type": "uint256"
        }
      ],
      "stateMutability": "view",
      "type": "function"
    },
    {
      "inputs": [],
      "name": "updatedAt",
      "outputs": [
        {
          "internalType": "uint256",
          "name": "",
          "type": "uint256"
        }
      ],
      "stateMutability": "view",
      "type": "function"
    },
    {
      "inputs": [
        {
          "internalType": "address",
          "name": "",
          "type": "address"
        }
      ],
      "name": "userMaximumWithdrawAmount",
      "outputs": [
        {
          "internalType": "uint256",
          "name": "",
          "type": "uint256"
        }
      ],
      "stateMutability": "view",
      "type": "function"
    },
    {
      "inputs": [],
      "name": "validatorOwner",
      "outputs": [
        {
          "internalType": "address",
          "name": "",
          "type": "address"
        }
      ],
      "stateMutability": "view",
      "type": "function"
    },
    {
      "inputs": [
        {
          "internalType": "address",
          "name": "_account",
          "type": "address"
        }
      ],
      "name": "exists",
      "outputs": [
        {
          "internalType": "bool",
          "name": "",
          "type": "bool"
        }
      ],
      "stateMutability": "view",
      "type": "function"
    },
    {
      "inputs": [
        {
          "internalType": "uint256",
          "name": "_amount",
          "type": "uint256"
        }
      ],
      "name": "updateReward",
      "outputs": [],
      "stateMutability": "nonpayable",
      "type": "function"
    },
    {
      "inputs": [
        {
          "internalType": "uint256",
          "name": "_amount",
          "type": "uint256"
        }
      ],
      "name": "withdraw",
      "outputs": [],
      "stateMutability": "payable",
      "type": "function"
    },
    {
      "inputs": [],
      "name": "receiveReward",
      "outputs": [],
      "stateMutability": "nonpayable",
      "type": "function"
    }
  ],
  "bytecode": "0x60a06040523480156200001157600080fd5b5060405162001964380380620019648339818101604052810190620000379190620001b2565b600160008190555033600160006101000a81548173ffffffffffffffffffffffffffffffffffffffff021916908373ffffffffffffffffffffffffffffffffffffffff16021790555081600260006101000a81548173ffffffffffffffffffffffffffffffffffffffff021916908373ffffffffffffffffffffffffffffffffffffffff1602179055508273ffffffffffffffffffffffffffffffffffffffff1660808173ffffffffffffffffffffffffffffffffffffffff16815250506000600481905550806007819055505050506200020e565b600080fd5b600073ffffffffffffffffffffffffffffffffffffffff82169050919050565b60006200013f8262000112565b9050919050565b620001518162000132565b81146200015d57600080fd5b50565b600081519050620001718162000146565b92915050565b6000819050919050565b6200018c8162000177565b81146200019857600080fd5b50565b600081519050620001ac8162000181565b92915050565b600080600060608486031215620001ce57620001cd6200010d565b5b6000620001de8682870162000160565b9350506020620001f18682870162000160565b925050604062000204868287016200019b565b9150509250925092565b6080516117176200024d6000396000818161031d015281816103aa01528181610a8b01528181610c3a01528181610da60152610e3301526117176000f3fe6080604052600436106100ec5760003560e01c80637519ab501161008a5780638da5cb5b116100595780638da5cb5b14610717578063a9dd548b14610742578063f6a3d24e1461076d578063ff3d9e4f146107aa576100ed565b80637519ab5014610659578063775115fb1461068457806384371453146106af5780638b0b30ce146106ec576100ed565b806332ec80fe116100c657806332ec80fe1461059d578063425c8abd146105c85780635c198a6e146105f157806370a082311461061c576100ed565b80630700037d1461051957806318160ddd146105565780632e1a7d4d14610581576100ed565b5b7f7c6a000d6581009ece38db2bf0a802db87c25d55bdf668f06a962b9c718847733360405161011c91906110bb565b60405180910390a1600260009054906101000a900473ffffffffffffffffffffffffffffffffffffffff1673ffffffffffffffffffffffffffffffffffffffff163373ffffffffffffffffffffffffffffffffffffffff160361024d576000600260009054906101000a900473ffffffffffffffffffffffffffffffffffffffff1673ffffffffffffffffffffffffffffffffffffffff16346040516101c190611107565b60006040518083038185875af1925050503d80600081146101fe576040519150601f19603f3d011682016040523d82523d6000602084013e610203565b606091505b5050905080610247576040517f08c379a000000000000000000000000000000000000000000000000000000000815260040161023e90611179565b60405180910390fd5b50610517565b610256336107c1565b34600b60003373ffffffffffffffffffffffffffffffffffffffff1673ffffffffffffffffffffffffffffffffffffffff16815260200190815260200160002060008282546102a591906111d2565b9250508190555034600960003373ffffffffffffffffffffffffffffffffffffffff1673ffffffffffffffffffffffffffffffffffffffff16815260200190815260200160002060008282546102fb91906111d2565b9250508190555034600a600082825461031491906111d2565b925050819055507f000000000000000000000000000000000000000000000000000000000000000073ffffffffffffffffffffffffffffffffffffffff166379c6506830346040518363ffffffff1660e01b8152600401610376929190611215565b600060405180830381600087803b15801561039057600080fd5b505af11580156103a4573d6000803e3d6000fd5b505050507f000000000000000000000000000000000000000000000000000000000000000073ffffffffffffffffffffffffffffffffffffffff1663a9059cbb33346040518363ffffffff1660e01b8152600401610403929190611215565b6020604051808303816000875af1158015610422573d6000803e3d6000fd5b505050506040513d601f19601f82011682018060405250810190610446919061127b565b506000600260009054906101000a900473ffffffffffffffffffffffffffffffffffffffff1673ffffffffffffffffffffffffffffffffffffffff163460405161048f90611107565b60006040518083038185875af1925050503d80600081146104cc576040519150601f19603f3d011682016040523d82523d6000602084013e6104d1565b606091505b5050905080610515576040517f08c379a000000000000000000000000000000000000000000000000000000000815260040161050c90611179565b60405180910390fd5b505b005b34801561052557600080fd5b50610540600480360381019061053b91906112d4565b61084b565b60405161054d9190611301565b60405180910390f35b34801561056257600080fd5b5061056b610863565b6040516105789190611301565b60405180910390f35b61059b60048036038101906105969190611348565b610869565b005b3480156105a957600080fd5b506105b2610b35565b6040516105bf9190611301565b60405180910390f35b3480156105d457600080fd5b506105ef60048036038101906105ea9190611348565b610b3b565b005b3480156105fd57600080fd5b50610606610baa565b6040516106139190611301565b60405180910390f35b34801561062857600080fd5b50610643600480360381019061063e91906112d4565b610bb0565b6040516106509190611301565b60405180910390f35b34801561066557600080fd5b5061066e610bc8565b60405161067b9190611301565b60405180910390f35b34801561069057600080fd5b50610699610bce565b6040516106a691906110bb565b60405180910390f35b3480156106bb57600080fd5b506106d660048036038101906106d191906112d4565b610bf4565b6040516106e39190611301565b60405180910390f35b3480156106f857600080fd5b50610701610c0c565b60405161070e9190611301565b60405180910390f35b34801561072357600080fd5b5061072c610c12565b60405161073991906110bb565b60405180910390f35b34801561074e57600080fd5b50610757610c38565b60405161076491906113d4565b60405180910390f35b34801561077957600080fd5b50610794600480360381019061078f91906112d4565b610c5c565b6040516107a191906113fe565b60405180910390f35b3480156107b657600080fd5b506107bf610d0a565b005b6107ca81610c5c565b610848578060038080549050815481106107e7576107e6611419565b5b9060005260206000200160006101000a81548173ffffffffffffffffffffffffffffffffffffffff021916908373ffffffffffffffffffffffffffffffffffffffff1602179055506004600081548092919061084290611448565b91905055505b50565b60086020528060005260406000206000915090505481565b600a5481565b610871610edc565b600081116108b4576040517f08c379a00000000000000000000000000000000000000000000000000000000081526004016108ab906114dc565b60405180910390fd5b600960003373ffffffffffffffffffffffffffffffffffffffff1673ffffffffffffffffffffffffffffffffffffffff16815260200190815260200160002054811115610936576040517f08c379a000000000000000000000000000000000000000000000000000000000815260040161092d90611548565b60405180910390fd5b80600b60003373ffffffffffffffffffffffffffffffffffffffff1673ffffffffffffffffffffffffffffffffffffffff16815260200190815260200160002060008282546109859190611568565b9250508190555080600960003373ffffffffffffffffffffffffffffffffffffffff1673ffffffffffffffffffffffffffffffffffffffff16815260200190815260200160002060008282546109db9190611568565b925050819055506000600b60003373ffffffffffffffffffffffffffffffffffffffff1673ffffffffffffffffffffffffffffffffffffffff168152602001908152602001600020541015610a70576000600b60003373ffffffffffffffffffffffffffffffffffffffff1673ffffffffffffffffffffffffffffffffffffffff168152602001908152602001600020819055505b80600a6000828254610a829190611568565b925050819055507f000000000000000000000000000000000000000000000000000000000000000073ffffffffffffffffffffffffffffffffffffffff166323b872dd3330846040518463ffffffff1660e01b8152600401610ae69392919061159c565b6020604051808303816000875af1158015610b05573d6000803e3d6000fd5b505050506040513d601f19601f82011682018060405250810190610b29919061127b565b50610b32610f2b565b50565b60055481565b60005b600380549050811015610ba657610b9360038281548110610b6257610b61611419565b5b9060005260206000200160009054906101000a900473ffffffffffffffffffffffffffffffffffffffff1683610f35565b8080610b9e90611448565b915050610b3e565b5050565b60045481565b600b6020528060005260406000206000915090505481565b60065481565b600260009054906101000a900473ffffffffffffffffffffffffffffffffffffffff1681565b60096020528060005260406000206000915090505481565b60075481565b600160009054906101000a900473ffffffffffffffffffffffffffffffffffffffff1681565b7f000000000000000000000000000000000000000000000000000000000000000081565b600080600090505b600380549050811015610cff578273ffffffffffffffffffffffffffffffffffffffff1660038281548110610c9c57610c9b611419565b5b9060005260206000200160009054906101000a900473ffffffffffffffffffffffffffffffffffffffff1673ffffffffffffffffffffffffffffffffffffffff1603610cec576001915050610d05565b8080610cf790611448565b915050610c64565b50600090505b919050565b610d12610edc565b6000600860003373ffffffffffffffffffffffffffffffffffffffff1673ffffffffffffffffffffffffffffffffffffffff1681526020019081526020016000205490506000811115610ed1576000600860003373ffffffffffffffffffffffffffffffffffffffff1673ffffffffffffffffffffffffffffffffffffffff168152602001908152602001600020819055507f000000000000000000000000000000000000000000000000000000000000000073ffffffffffffffffffffffffffffffffffffffff166379c6506830836040518363ffffffff1660e01b8152600401610dff929190611215565b600060405180830381600087803b158015610e1957600080fd5b505af1158015610e2d573d6000803e3d6000fd5b505050507f000000000000000000000000000000000000000000000000000000000000000073ffffffffffffffffffffffffffffffffffffffff1663a9059cbb33836040518363ffffffff1660e01b8152600401610e8c929190611215565b6020604051808303816000875af1158015610eab573d6000803e3d6000fd5b505050506040513d601f19601f82011682018060405250810190610ecf919061127b565b505b50610eda610f2b565b565b600260005403610f21576040517f08c379a0000000000000000000000000000000000000000000000000000000008152600401610f189061161f565b60405180910390fd5b6002600081905550565b6001600081905550565b6000600a54600b60003373ffffffffffffffffffffffffffffffffffffffff1673ffffffffffffffffffffffffffffffffffffffff1681526020019081526020016000205483610f85919061163f565b610f8f91906116b0565b905080600860008573ffffffffffffffffffffffffffffffffffffffff1673ffffffffffffffffffffffffffffffffffffffff16815260200190815260200160002054610fdc91906111d2565b600860008573ffffffffffffffffffffffffffffffffffffffff1673ffffffffffffffffffffffffffffffffffffffff1681526020019081526020016000208190555080600960008573ffffffffffffffffffffffffffffffffffffffff1673ffffffffffffffffffffffffffffffffffffffff168152602001908152602001600020600082825461106e91906111d2565b92505081905550505050565b600073ffffffffffffffffffffffffffffffffffffffff82169050919050565b60006110a58261107a565b9050919050565b6110b58161109a565b82525050565b60006020820190506110d060008301846110ac565b92915050565b600081905092915050565b50565b60006110f16000836110d6565b91506110fc826110e1565b600082019050919050565b6000611112826110e4565b9150819050919050565b600082825260208201905092915050565b7f4661696c656420746f2073656e642045564d4f53000000000000000000000000600082015250565b600061116360148361111c565b915061116e8261112d565b602082019050919050565b6000602082019050818103600083015261119281611156565b9050919050565b6000819050919050565b7f4e487b7100000000000000000000000000000000000000000000000000000000600052601160045260246000fd5b60006111dd82611199565b91506111e883611199565b9250828201905080821115611200576111ff6111a3565b5b92915050565b61120f81611199565b82525050565b600060408201905061122a60008301856110ac565b6112376020830184611206565b9392505050565b600080fd5b60008115159050919050565b61125881611243565b811461126357600080fd5b50565b6000815190506112758161124f565b92915050565b6000602082840312156112915761129061123e565b5b600061129f84828501611266565b91505092915050565b6112b18161109a565b81146112bc57600080fd5b50565b6000813590506112ce816112a8565b92915050565b6000602082840312156112ea576112e961123e565b5b60006112f8848285016112bf565b91505092915050565b60006020820190506113166000830184611206565b92915050565b61132581611199565b811461133057600080fd5b50565b6000813590506113428161131c565b92915050565b60006020828403121561135e5761135d61123e565b5b600061136c84828501611333565b91505092915050565b6000819050919050565b600061139a6113956113908461107a565b611375565b61107a565b9050919050565b60006113ac8261137f565b9050919050565b60006113be826113a1565b9050919050565b6113ce816113b3565b82525050565b60006020820190506113e960008301846113c5565b92915050565b6113f881611243565b82525050565b600060208201905061141360008301846113ef565b92915050565b7f4e487b7100000000000000000000000000000000000000000000000000000000600052603260045260246000fd5b600061145382611199565b91507fffffffffffffffffffffffffffffffffffffffffffffffffffffffffffffffff8203611485576114846111a3565b5b600182019050919050565b7f616d6f756e74203d203000000000000000000000000000000000000000000000600082015250565b60006114c6600a8361111c565b91506114d182611490565b602082019050919050565b600060208201905081810360008301526114f5816114b9565b9050919050565b7f746f6f206d75636820616d6f756e740000000000000000000000000000000000600082015250565b6000611532600f8361111c565b915061153d826114fc565b602082019050919050565b6000602082019050818103600083015261156181611525565b9050919050565b600061157382611199565b915061157e83611199565b9250828203905081811115611596576115956111a3565b5b92915050565b60006060820190506115b160008301866110ac565b6115be60208301856110ac565b6115cb6040830184611206565b949350505050565b7f5265656e7472616e637947756172643a207265656e7472616e742063616c6c00600082015250565b6000611609601f8361111c565b9150611614826115d3565b602082019050919050565b60006020820190508181036000830152611638816115fc565b9050919050565b600061164a82611199565b915061165583611199565b925082820261166381611199565b9150828204841483151761167a576116796111a3565b5b5092915050565b7f4e487b7100000000000000000000000000000000000000000000000000000000600052601260045260246000fd5b60006116bb82611199565b91506116c683611199565b9250826116d6576116d5611681565b5b82820490509291505056fea264697066735822122064267ca9ab2799e96bf29bb2b39607574e6844b472b5c2a1e2c5394578c69f3364736f6c63430008110033",
  "immutableReferences": {
    "773": [
      {
        "length": 32,
        "start": 797
      },
      {
        "length": 32,
        "start": 938
      },
      {
        "length": 32,
        "start": 2699
      },
      {
        "length": 32,
        "start": 3130
      },
      {
        "length": 32,
        "start": 3494
      },
      {
        "length": 32,
        "start": 3635
      }
    ]
  },
  "source": " // SPDX-License-Identifier: MIT\r\npragma solidity ^0.8;\r\n\r\nimport \"@openzeppelin/contracts/security/ReentrancyGuard.sol\"; \r\n\r\ncontract LiquidStaking is ReentrancyGuard{\r\n    // Reward    type\r\n    IERC20 public immutable reToken;\r\n\r\n    struct addressData {\r\n        address account;\r\n        bool isValue; \r\n    }\r\n\r\n    address public owner;\r\n    address public validatorOwner; \r\n    // address list\r\n    address[] addressList;\r\n    // total address;\r\n    uint public totalAddressNumber;\r\n    // Reward Token Amount\r\n    uint public rewardsTokenAmount;\r\n    // Minimum of last updated time and reward finish time\r\n    uint public updatedAt;\r\n    uint public unbondingTime;\r\n    // User address => rewards to be claimed\r\n    mapping(address => uint) public rewards;\r\n    // maximum amount user can withdraw\r\n    mapping(address => uint) public userMaximumWithdrawAmount;\r\n    \r\n    // Total staked ->    \r\n    uint public totalSupply;\r\n    // User address => staked amount ->    \r\n    mapping(address => uint) public balanceOf;\r\n\r\n    event Received(address sender);\r\n\r\n    //  staking token address / reward token address  \r\n    constructor(address _reToken, address _validatorOwner, uint _unbondingTime) {\r\n        owner = msg.sender;\r\n        validatorOwner = _validatorOwner;\r\n        reToken = IERC20(_reToken);\r\n        totalAddressNumber = 0;\r\n        unbondingTime = _unbondingTime;\r\n    }\r\n\r\n    fallback() external payable {\r\n        emit Received(msg.sender);\r\n        // validator owner send\r\n        if (msg.sender == validatorOwner) {\r\n            (bool sent, ) = validatorOwner.call{value: msg.value}(\"\");\r\n            require(sent, \"Failed to send EVMOS\");\r\n        }\r\n        // normal user send\r\n        else {\r\n            addAddressList(msg.sender);\r\n            balanceOf[msg.sender] += msg.value;\r\n            userMaximumWithdrawAmount[msg.sender] += msg.value;\r\n            totalSupply += msg.value;\r\n            // reward token mint\r\n            reToken.mintToken(address(this), msg.value);\r\n            reToken.transfer(msg.sender, msg.value);\r\n            (bool sent, ) = validatorOwner.call{value: msg.value}(\"\");\r\n            require(sent, \"Failed to send EVMOS\");\r\n        }\r\n    }\r\n\r\n    function exists(address _account) public view returns(bool) {\r\n        for (uint i = 0; i< addressList.length; i++) {\r\n            if (addressList[i] == _account) {\r\n                return true;\r\n            }\r\n        }\r\n        return false;\r\n    }\r\n\r\n    modifier onlyOwner() {\r\n        require(msg.sender == owner, \"not authorized\");\r\n        _;\r\n    }\r\n\r\n    function updateAccountReward (address _account, uint _amount) private {\r\n        uint dailyReward = _amount * balanceOf[msg.sender] / totalSupply;\r\n        rewards[_account] = rewards[_account] + dailyReward;\r\n        // user withdraw     \r\n        userMaximumWithdrawAmount[_account] += dailyReward;\r\n    }\r\n\r\n    function updateReward (uint _amount) public {\r\n        for (uint i = 0; i< addressList.length; i++) {\r\n            updateAccountReward(addressList[i], _amount);\r\n        }\r\n    }\r\n\r\n    function addAddressList(address _account) private {\r\n        if (!exists(_account)) {\r\n            addressList[addressList.length] = _account;\r\n            totalAddressNumber++;\r\n        }\r\n    }\r\n\r\n    function withdraw(uint _amount) external payable nonReentrant()  {\r\n        require(_amount > 0, \"amount = 0\");\r\n        require(_amount <= userMaximumWithdrawAmount[msg.sender], \"too much amount\");\r\n        balanceOf[msg.sender] -= _amount;\r\n        userMaximumWithdrawAmount[msg.sender] -= _amount;\r\n        if (balanceOf[msg.sender] < 0 ) {\r\n            balanceOf[msg.sender] = 0;\r\n        }\r\n        totalSupply -= _amount;\r\n        reToken.transferFrom(msg.sender, address(this), _amount);\r\n\r\n\r\n        // (bool sent, bytes memory data) = recipient.call{value: msg.value}(\"\");\r\n        // require(sent, \"Failed to send Ether\");\r\n    }\r\n\r\n    function receiveReward() external nonReentrant()  {\r\n        uint reward = rewards[msg.sender];\r\n        if (reward > 0) {\r\n            rewards[msg.sender] = 0;\r\n            reToken.mintToken(address(this), reward);\r\n            // rewardsToken msg.sender   \r\n            reToken.transfer(msg.sender, reward);\r\n        }\r\n    }\r\n\r\n    function _min(uint x, uint y) private pure returns (uint) {\r\n        return x <= y ? x : y;\r\n    }\r\n}\r\n\r\ninterface IERC20 {\r\n    function totalSupply() external view returns (uint);\r\n    function balanceOf(address account) external view returns (uint);\r\n    function transfer(address recipient, uint amount) external returns (bool);\r\n    function allowance(address owner, address spender) external view returns (uint);\r\n    function approve(address spender, uint amount) external returns (bool);\r\n    function transferFrom(\r\n        address sender,\r\n        address recipient,\r\n        uint amount\r\n    ) external returns (bool);\r\n    function mintToken(address account, uint amount) external;\r\n    event Transfer(address indexed from, address indexed to, uint value);\r\n    event Approval(address indexed owner, address indexed spender, uint value);\r\n}\r\n\r\n ",
  "sourcePath": "C:\\Users\\user\\Documents\\GitHub\\InvincibleNode\\backend\\truffle\\contracts\\LiquidStaking.sol",
  "compiler": {
    "name": "solc",
    "version": "0.8.17+commit.8df45f5f.Emscripten.clang"
  },
  "schemaVersion": "3.4.11",
  "updatedAt": "2022-11-30T08:08:04.580Z",
  "devdoc": {
    "kind": "dev",
    "methods": {},
    "version": 1
  },
  "userdoc": {
    "kind": "user",
    "methods": {},
    "version": 1
  }
}